:100000000C942A000C9484170C94BB170C94F217D0
:100010000C94320B0C94FB0A0C943B120C94AB0C1A
:100020000C94E20C0C94190D0C945B110C94801040
:100030000C9447000C9447000C9447000C94470024
:100040000C94601F0C9447000C9447000C944700DC
:100050000C94470011241FBECFE5D8E0DEBFCDBF12
:1000600017E0A0E6B0E0E8EBFCE602C005900D92D8
:10007000AC33B107D9F717E0ACE3B7E001C01D928C
:10008000AE3AB107E1F70E94D0350C945A360C9481
:100090000000EF92FF920F931F937B018C0120E0F1
:1000A00030E040E05FE40E94250488238CF0C80122
:1000B000B70120E030E040E05FE40E94C1010E940F
:1000C00085049B01AC01205030404040504806C0A0
:1000D000C801B7010E9485049B01AC01B901CA01A6
:1000E0001F910F91FF90EF900895A0E0B0E0EBE733
:1000F000F0E00C941A36DC012B01FA019C9192304D
:1001000008F439C1EB018881823008F433C194309E
:1001100069F4843009F02FC111969C91119789815F
:10012000981709F428C1A1E6B5E025C1843009F487
:1001300021C18230A9F4923009F01DC19A01AD01AC
:1001400088E0EA010990AE01E90109929E0181501F
:10015000C1F7E201898111969C918923818308C1AD
:10016000923009F407C112962D903C901397EB0141
:100170008A819B811496AD90BD90CD90DC901797AD
:10018000EC80FD800E811F819101281B390BB90184
:1001900037FF04C066277727621B730B6032710537
:1001A0000CF061C0121613066CF537014801062EDB
:1001B00004C096948794779467940A94D2F721E0C8
:1001C00030E040E050E004C0220F331F441F551FB1
:1001D0006A95D2F721503040404050402E213F21B7
:1001E00040235123211531054105510521F021E01E
:1001F00030E040E050E079018A01E628F72808293C
:1002000019293CC0232BD1F1260E371E350146019A
:10021000062E04C096948794779467940A94D2F734
:1002200021E030E040E050E004C0220F331F441FC3
:10023000551F6A95D2F721503040404050402A2146
:100240003B214C215D21211531054105510521F04E
:1002500021E030E040E050E059016A01A628B728CB
:10026000C828D9280BC0821593052CF01C01AA249C
:10027000BB24650103C0EE24FF24870111969C91E5
:10028000D20111968C91981709F445C0992339F041
:10029000A80197012A193B094C095D0906C0A6016E
:1002A00095012E193F09400B510B57FD08C01182D3
:1002B0003382228224833583468357831DC081E0A5
:1002C00081833382228288279927DC01821B930B4A
:1002D000A40BB50B84839583A683B7830DC0220F2F
:1002E000331F441F551F24833583468357838281E0
:1002F000938101979383828324813581468157813D
:10030000DA01C9010197A109B1098F5F9F4FAF4F72
:10031000BF4328F30BC0918333822282EA0CFB1C7B
:100320000C1D1D1DE482F5820683178383E0808304
:10033000248135814681578157FF1AC0C901AA27F8
:1003400097FDA095BA2F81709070A070B0705695EF
:10035000479537952795822B932BA42BB52B848318
:100360009583A683B7838281938101969383828349
:10037000DF0101C0D201CD01CDB7DEB7E2E10C94BF
:100380003636A0E2B0E0E7ECF1E00C942636698363
:100390007A838B839C832D833E834F835887E9E048
:1003A000EE2EF12CEC0EFD1ECE010196B7010E943F
:1003B00076068E010F5E1F4FCE010596B8010E9492
:1003C00076068A8991E089278A8BC701B801AE0138
:1003D000475E5F4F0E9475000E94A105A096E6E06F
:1003E0000C944236A0E2B0E0E8EFF1E00C9426363F
:1003F00069837A838B839C832D833E834F835887C5
:10040000F9E0EF2EF12CEC0EFD1ECE010196B701A6
:100410000E9476068E010F5E1F4FCE010596B80131
:100420000E947606C701B801AE01475E5F4F0E9489
:1004300075000E94A105A096E6E00C944236A0E269
:10044000B0E0E5E2F2E00C941A3669837A838B839C
:100450009C832D833E834F835887CE010196BE0136
:10046000675F7F4F0E947606CE010596BE016F5EE4
:100470007F4F0E9476069985923088F08989823074
:10048000C8F0943019F4823051F404C0843029F457
:10049000923081F481E695E0C6C0923049F420E0C4
:1004A0009A858A89981321E02A87CE010996BBC0D4
:1004B000823049F420E09A858A89981321E02A8BBA
:1004C000CE014196B0C02D843E844F8458886D88FB
:1004D0007E888F88988CEE24FF248701AA24BB2471
:1004E000650140E050E060E070E0E0E0F0E0C10174
:1004F00081709070892BE9F0E60CF71C081D191D1E
:100500009A01AB012A0D3B1D4C1D5D1D80E090E062
:10051000A0E0B0E0E614F7040805190520F481E036
:1005200090E0A0E0B0E0BA01A901480F591F6A1F8E
:100530007B1FAA0CBB1CCC1CDD1C97FE08C081E0F5
:1005400090E0A0E0B0E0A82AB92ACA2ADB2A3196B6
:10055000E032F10549F0660C771C881C991C569412
:10056000479437942794C3CFFA85EA892B893C892D
:100570008B859C85280F391F2E5F3F4F17C0CA01FE
:1005800081709070892B61F016950795F794E79428
:1005900080E090E0A0E0B0E8E82AF92A0A2B1B2BC3
:1005A00076956795579547952F5F3F4F77FDE7CF36
:1005B0000CC0440F551F661F771F17FD4160EE0CDE
:1005C000FF1C001F111F21503040403090E05907A0
:1005D00090E0690790E4790760F32B8F3C8FDB0193
:1005E000CA018F779070A070B07080349105A1051A
:1005F000B10561F447FD0AC0E114F10401051105DC
:1006000029F0405C5F4F6F4F7F4F40781A8EFE1786
:1006100011F081E08A8F4D8F5E8F6F8F78A383E01A
:10062000898FCE0149960E94A105A096E2E10C9423
:100630003636A8E1B0E0EFE1F3E00C9422366983AE
:100640007A838B839C832D833E834F835887B9E0C5
:10065000EB2EF12CEC0EFD1ECE010196B7010E948F
:1006600076068E010F5E1F4FCE010596B8010E94DF
:1006700076062985223008F47EC03989323010F49C
:10068000B8017CC08A859A8989278A87243011F02D
:10069000223031F4231709F06EC061E675E06EC0B8
:1006A000343039F41D861E861F86188A1C861B86E8
:1006B00004C0323021F484E08987B7015FC02B8504
:1006C0003C858B899C89281B390B3C872B87ED84C3
:1006D000FE840F851889AD88BE88CF88D88CEA142F
:1006E000FB040C051D0540F4EE0CFF1C001F111F40
:1006F000215030403C872B8720E030E040E050E044
:1007000080E090E0A0E0B0E460E070E0EA14FB0478
:100710000C051D0540F0282B392B4A2B5B2BEA18C2
:10072000FB080C091D09B695A79597958795EE0CC2
:10073000FF1C001F111F6F5F7F4F6F31710531F775
:10074000DA01C9018F779070A070B0708034910584
:10075000A105B10561F427FD0AC0E114F10401050A
:10076000110529F0205C3F4F4F4F5F4F20782D87B8
:100770003E874F87588BBE01675F7F4FCB010E943A
:10078000A1056896EAE00C943E36A8E1B0E0EBECF7
:10079000F3E00C94263669837A838B839C832D83C4
:1007A0003E834F83588789E0E82EF12CEC0EFD1E26
:1007B000CE010196B7010E9476068E010F5E1F4F93
:1007C000CE010596B8010E9476068985823040F0F8
:1007D0008989823028F0C701B8010E94EE0601C065
:1007E00081E06896E6E00C944236A8E1B0E0EBEFD9
:1007F000F3E00C94263669837A838B839C832D8364
:100800003E834F83588789E0E82EF12CEC0EFD1EC5
:10081000CE010196B7010E9476068E010F5E1F4F32
:10082000CE010596B8010E9476068985823040F097
:100830008989823028F0C701B8010E94EE0601C004
:100840008FEF6896E6E00C944236A8E1B0E0EBE268
:10085000F4E00C94263669837A838B839C832D8302
:100860003E834F83588789E0E82EF12CEC0EFD1E65
:10087000CE010196B7010E9476068E010F5E1F4FD2
:10088000CE010596B8010E9476068985823040F037
:100890008989823028F0C701B8010E94EE0601C0A4
:1008A0008FEF6896E6E00C944236A8E1B0E0EBE505
:1008B000F4E00C94263669837A838B839C832D83A2
:1008C0003E834F83588789E0E82EF12CEC0EFD1E05
:1008D000CE010196B7010E9476068E010F5E1F4F72
:1008E000CE010596B8010E9476068985823040F0D7
:1008F0008989823028F0C701B8010E94EE0601C044
:1009000081E06896E6E00C944236ACE0B0E0EBE8BB
:10091000F4E00C942A3669837A838B839C83CE011E
:100920000196BE016B5F7F4F0E9476068D818230FB
:1009300061F1823050F1843021F48E81882351F1AD
:100940002EC02F81388537FD20C06E812F313105B3
:100950001CF06623F9F023C08EE190E0821B930B1C
:1009600029853A854B855C8504C056954795379512
:1009700027958A95D2F76623B1F05095409530952A
:1009800021953F4F4F4F5F4F0EC020E030E040E0D9
:1009900050E009C02FEF3FEF4FEF5FE704C020E0CA
:1009A00030E040E050E8B901CA012C96E2E00C9436
:1009B0004636A8E0B0E0EFEDF4E00C9422367B017F
:1009C0008C01611571058105910519F482E0898317
:1009D00060C083E089838EE1C82ED12CDC82CB827B
:1009E000ED82FE820F831887C801B7010E9452056D
:1009F000FC013197F7FF3BC0222733272E1B3F0B0B
:100A000057016801022E04C0D694C794B794A794E6
:100A10000A94D2F740E050E060E070E081E090E0BE
:100A2000A0E0B0E004C0880F991FAA1FBB1F2A9541
:100A3000D2F70197A109B1098E219F21A023B123EB
:100A40000097A105B10521F041E050E060E070E0C1
:100A50004A295B296C297D294D835E836F837887C2
:100A60008EE190E08E1B9F0B9C838B8312C030978E
:100A700081F00E2E04C0EE0CFF1C001F111F0A9403
:100A8000D2F7ED82FE820F831887CE1ADF0ADC824E
:100A9000CB821A82CE0101960E94A1052896EAE037
:100AA0000C943E36EF92FF920F931F937B018C01C3
:100AB00080E0E81680E0F80681E0080780E018078B
:100AC00088F48FEFE816F1040105110531F028F0E4
:100AD00088E090E0A0E0B0E017C080E090E0A0E007
:100AE000B0E012C080E0E81680E0F80680E0080779
:100AF00081E0180728F088E190E0A0E0B0E004C0B1
:100B000080E190E0A0E0B0E020E230E040E050E0A2
:100B1000281B390B4A0B5B0B04C016950795F794FD
:100B2000E7948A95D2F7F701E759FA4F8081281B9D
:100B3000310941095109C9011F910F91FF90EF90AF
:100B40000895DF92EF92FF920F931F93FC01E480D0
:100B5000F58006811781D1808081823048F480E061
:100B600090E0A0E1B0E0E82AF92A0A2B1B2BA5C0EF
:100B7000843009F49FC0823021F4EE24FF248701E1
:100B800005C0E114F1040105110519F4E0E0F0E0FD
:100B900096C0628173819FEF623879070CF05BC069
:100BA00022E83FEF261B370B2A3131052CF020E0DD
:100BB00030E040E050E02AC0B801A701022E04C096
:100BC00076956795579547950A94D2F781E090E01E
:100BD000A0E0B0E004C0880F991FAA1FBB1F2A9590
:100BE000D2F70197A109B1098E219F21A023B1233A
:100BF0000097A105B10521F081E090E0A0E0B0E010
:100C00009A01AB01282B392B4A2B5B2BDA01C90146
:100C10008F779070A070B07080349105A105B105F8
:100C200039F427FF09C0205C3F4F4F4F5F4F04C08E
:100C3000215C3F4F4F4F5F4FE0E0F0E02030A0E0FD
:100C40003A07A0E04A07A0E45A0710F0E1E0F0E01C
:100C500079018A0127C06038710564F5FB01E1580C
:100C6000FF4FD801C7018F779070A070B0708034AB
:100C70009105A105B10539F4E7FE0DC080E490E0CF
:100C8000A0E0B0E004C08FE390E0A0E0B0E0E80EA8
:100C9000F91E0A1F1B1F17FF05C016950795F7942D
:100CA000E794319687E016950795F794E7948A952F
:100CB000D1F705C0EE24FF248701EFEFF0E06E2F9F
:100CC000679566276795902F9F77D794DD24D794F3
:100CD0008E2F8695492F462B582F5D29B701CA01C3
:100CE0001F910F91FF90EF90DF900895FC01DB01C1
:100CF000408151812281622F6F7770E0221F22276D
:100D0000221F9381892F880F822B282F30E0991F73
:100D10009927991F11969C93119721153105A9F5D3
:100D2000411551056105710511F482E037C082E873
:100D30009FEF13969C938E9312979A01AB0167E0F5
:100D4000220F331F441F551F6A95D1F783E08C9300
:100D50000DC0220F331F441F551F12968D919C9179
:100D60001397019713969C938E931297203080E0EF
:100D7000380780E0480780E4580758F314962D930D
:100D80003D934D935C93179708952F3F310579F468
:100D9000411551056105710519F484E08C9308959E
:100DA00064FF03C081E08C9312C01C9210C02F57C7
:100DB000304013963C932E93129783E08C9387E0F8
:100DC000440F551F661F771F8A95D1F770641496DC
:100DD0004D935D936D937C93179708951F93DC015A
:100DE000FB019C91923008F447C08081823008F466
:100DF00043C0943051F411961C91843099F581814F
:100E0000682F70E0611B71093FC0843021F092307F
:100E100031F48230B9F18181882389F12DC0119696
:100E20001C9111978230F1F081811817D9F4129634
:100E30002D913C911397828193818217930794F0AF
:100E400028173907BCF014968D919D910D90BC9197
:100E5000A02D2481358146815781281739074A07FB
:100E60005B0718F4112341F00AC082179307A40707
:100E7000B50740F4112319F061E070E005C06FEF91
:100E80007FEF02C060E070E0CB011F910895DF9317
:100E9000CF9300D000D0CDB7DEB71C82ABE2B0E07C
:100EA000EBE2F0E080818D7F8C9381E08C83AAE27D
:100EB000B0E0EAE2F0E0808188618C9381E08C838D
:100EC0001B828B8186608B83AAE2B0E0EAE2F0E0CD
:100ED00080818B7F8C9381E08C838B818F7C8B8353
:100EE00081E08C838B81877F8B8381E08C838B81F6
:100EF0008F7B8B8381E08C838B8180688B83E0E4A4
:100F0000F0E08B81808383E390E09A8389838981F9
:100F10009A819F779A838983E9E2F0E089818083CF
:100F2000E0E4F0E089819A81892F9927808381E02C
:100F30008C838C810F900F900F900F90CF91DF9149
:100F40000895DF93CF9300D0CDB7DEB78A8319829F
:100F5000EBE2F0E08081882F90E080729070009743
:100F6000B9F3ECE2F0E08A81808381E089838981B2
:100F70000F900F90CF91DF910895DF93CF9300D022
:100F80000F92CDB7DEB79B838A8319828A819B81BA
:100F9000009771F0EBE2F0E080818823DCF7ECE26F
:100FA000F0E08081EA81FB81808381E0898302C057
:100FB00082E0898389810F900F900F90CF91DF910C
:100FC0000895DF93CF9300D00F92CDB7DEB79B8308
:100FD0008A83198214C0EBE2F0E08081882F90E0D0
:100FE000807290700097B9F3ACE2B0E0EA81FB81C7
:100FF00080818C938A819B8101969B838A83EA817D
:10100000FB818081882339F781E0898389810F9072
:101010000F900F90CF91DF910895DF93CF9300D081
:1010200000D000D0CDB7DEB79E838D831C821B829B
:101030001A82EBE2F0E080818823DCF7ECE2F0E05A
:1010400080818983EBE2F0E080818823DCF7ECE2A9
:10105000F0E080818B839B8189819817A9F48A8134
:10106000282F30E08D819E81FC01E20FF31F10825A
:1010700081E08C838C8126960FB6F894DEBF0FBE7C
:10108000CDBFCF91DF9108958A81282F30E08D81E7
:101090009E81FC01E20FF31F8B8180838A818F5F29
:1010A0008A83D0CFDF93CF9300D00F92CDB7DEB736
:1010B0009B838A831982EBE2F0E08081882F90E0A5
:1010C000807290700097B9F3AAE2B0E0EAE2F0E033
:1010D00080818E7F8C938A819B8180709170009734
:1010E00039F0AAE2B0E0EAE2F0E0808181608C931E
:1010F000ECE2F0E08A81808381E0898389810F902E
:101100000F900F90CF91DF910895DF93CF9300D090
:101110000F92CDB7DEB79B838A831982EBE2F0E0B2
:1011200080818823DCF7EAE2F0E08081882F90E07C
:1011300082709070EA81FB8191838083EA81FB81D8
:1011400080819181382F2227ECE2F0E08081882F86
:1011500090E0822B932BEA81FB819183808381E055
:10116000898389810F900F900F90CF91DF9108951F
:10117000DF93CF930F92CDB7DEB71982AAE2B0E02A
:10118000EAE2F0E0808188608C9381E08983898144
:101190000F90CF91DF910895DF93CF930F92CDB74A
:1011A000DEB71982AAE2B0E0EAE2F0E08081806175
:1011B0008C9381E0898389810F90CF91DF9108958D
:1011C000DF93CF9300D0CDB7DEB78A8319828A81AF
:1011D000883090F4A1E4B0E0E1E4F0E08081887F21
:1011E0008C93A1E4B0E0E1E4F0E090818A81892B66
:1011F0008C9381E0898302C083E0898389810F9089
:101200000F90CF91DF910895DF93CF930F92CDB7D9
:10121000DEB71982A1E4B0E0E1E4F0E0808188600B
:101220008C9381E0898389810F90CF91DF9108951C
:10123000DF93CF930F92CDB7DEB71982A1E4B0E070
:10124000E1E4F0E0808188618C93E1E4F0E01082D9
:1012500081E0898389810F90CF91DF910895DF9399
:10126000CF930F92CDB7DEB71982A5E4B0E0E5E4E5
:10127000F0E080818B7F8C93A5E4B0E0E5E4F0E0C2
:10128000808182608C93A5E4B0E0E5E4F0E08081A9
:101290008E7F8C9381E08983A5E4B0E0E5E4F0E003
:1012A000808188608C93A5E4B0E0E5E4F0E0808183
:1012B0008F7B8C93A5E4B0E0E5E4F0E080818F7E45
:1012C0008C93A5E4B0E0E5E4F0E080818F7D8C9321
:1012D00081E0898389810F90CF91DF910895DF9319
:1012E000CF9300D000D00F92CDB7DEB79B838A8317
:1012F0007D836C8319828A819B81009779F08A8132
:101300009B8190933F0780933E078C819D819093B2
:1013100045078093440781E0898302C082E0898386
:1013200089810F900F900F900F900F90CF91DF91C8
:101330000895DF93CF9300D000D00F92CDB7DEB7E2
:101340009B838A837D836C8319828A819B8100972A
:1013500079F08A819B8190934107809340078C812B
:101360009D81909347078093460781E0898302C05F
:1013700082E0898389810F900F900F900F900F90DA
:10138000CF91DF910895DF93CF9300D0CDB7DEB733
:101390008A831982E4E4F0E08A81808381E0898392
:1013A00089810F900F90CF91DF910895DF93CF93B4
:1013B00000D0CDB7DEB78A831982E3E4F0E08A81FA
:1013C000808381E0898389810F900F90CF91DF9195
:1013D0000895DF93CF930F92CDB7DEB71982A9E5B9
:1013E000B0E0E9E5F0E0808180648C9381E089835E
:1013F00089810F90CF91DF910895DF93CF930F9262
:10140000CDB7DEB71982A9E5B0E0E9E5F0E080816B
:1014100080688C9381E0898389810F90CF91DF91DF
:101420000895DF93CF93CDB7DEB766970FB6F894E4
:10143000DEBF0FBECDBF6F87788B898B9A8B5C8B9D
:101440004B8B3E8B2D8B1E868FE692E1A3E8BEE38D
:101450008A879B87AC87BD876F85788989899A89B8
:101460000E94D904DC01CB01BC01CD012A853B855A
:101470004C855D850E941903DC01CB018E839F831F
:10148000A887B9876E817F81888599850E944900E8
:10149000DC01CB01BC01CD010E94D9049B01AC0150
:1014A0006E817F81888599850E94C101DC01CB0115
:1014B000BC01CD0120E030E040E050E00E94C503D7
:1014C000882309F464C06E817F81888599850E9494
:1014D0004900DC01CB010196A11DB11D8A839B83CC
:1014E000AC83BD836E817F81888599850E94490088
:1014F000DC01CB01BC01CD010E94D9049B01AC01F0
:101500006E817F81888599850E94C101DC01CB01B4
:101510008E839F83A887B9876E817F81888599850F
:1015200020E030E040E853EC0E941F02DC01CB01D8
:10153000BC01CD0120E030E040E853E40E94F2011C
:10154000DC01CB01BC01CD010E944900DC01CB01D3
:1015500089838A819B81AC81BD8180934807909368
:101560004907A0934A07B0934B078981882F90E0E1
:10157000A0E0B0E080934C0790934D07A0934E07F6
:10158000B0934F07E4E4F0E08981808310C06E815E
:101590007F81888599850E944900DC01CB01809379
:1015A000480790934907A0934A07B0934B078B894C
:1015B0009C89009769F08B899C8990933F07809361
:1015C0003E078D899E89909345078093440702C00A
:1015D00082E08E87A9E5B0E0E9E5F0E080818064F3
:1015E0008C938E8566960FB6F894DEBF0FBECDBF86
:1015F000CF91DF9108951F920F920FB60F92112491
:101600002F933F934F935F936F937F938F939F930A
:10161000AF93BF93EF93FF93DF93CF93CDB7DEB735
:1016200080913E0790913F07009749F0E0913E0777
:10163000F0913F0780914407909145070995CF911C
:10164000DF91FF91EF91BF91AF919F918F917F912A
:101650006F915F914F913F912F910F900FBE0F901F
:101660001F9018951F920F920FB60F9211242F936F
:101670003F934F935F936F937F938F939F93AF931A
:10168000BF93EF93FF93DF93CF93CDB7DEB78091F6
:10169000400790914107009749F0E0914007F09191
:1016A000410780914607909147070995CF91DF91B7
:1016B000FF91EF91BF91AF919F918F917F916F912A
:1016C0005F914F913F912F910F900FBE0F901F9000
:1016D0001895DF93CF930F92CDB7DEB71982AFE4A1
:1016E000B0E0EFE4F0E080818E7F8C93AFE4B0E077
:1016F000EFE4F0E0808182608C93AEE4B0E0EEE451
:10170000F0E0808188608C93AEE4B0E0EEE4F0E03D
:10171000808180618C93AFE4B0E0EFE4F0E0808101
:101720008F7B8C93AFE4B0E0EFE4F0E080818068E1
:101730008C93AFE4B0E0EFE4F0E080818F7E8C9397
:10174000AFE4B0E0EFE4F0E0808180628C9381E070
:101750008983AEE4B0E0EEE4F0E080818B7F8C938F
:10176000AEE4B0E0EEE4F0E0808182608C93AEE421
:10177000B0E0EEE4F0E080818E7F8C9381E089839D
:1017800089810F90CF91DF910895DF93CF9300D09F
:101790000F92CDB7DEB79B838A831982EAE4F0E02B
:1017A0008A819B819183808381E0898389810F90E5
:1017B0000F900F90CF91DF910895DF93CF9300D0DA
:1017C0000F92CDB7DEB79B838A831982E8E4F0E0FD
:1017D0008A819B819183808381E0898389810F90B5
:1017E0000F900F90CF91DF910895DF93CF9300D0AA
:1017F0000F92CDB7DEB79B838A831982E6E4F0E0CF
:101800008A819B819183808381E0898389810F9084
:101810000F900F90CF91DF910895DF93CF9300D079
:101820000F92CDB7DEB79B838A831982ECE4F0E098
:101830008A819B819183808381E0898389810F9054
:101840000F900F90CF91DF910895DF93CF9300D049
:101850000F92CDB7DEB79B838A8319828A819B81E1
:10186000009759F0ECE4F0E080819181EA81FB81FE
:101870009183808381E0898302C082E089838981AA
:101880000F900F900F90CF91DF910895DF93CF933A
:10189000CDB7DEB728970FB6F894DEBF0FBECDBF29
:1018A0009B838A837D836C834E8319828A819B818B
:1018B000009709F444C08E81282F30E038872F83A9
:1018C0008F8198858130910541F12F8138852230B3
:1018D000310529F08F819885009781F02DC08A818C
:1018E0009B8190935507809354078C819D819093A1
:1018F0005B0780935A0781E0898323C08A819B819B
:1019000090935107809350078C819D819093570746
:101910008093560781E0898314C08A819B819093CC
:101920005307809352078C819D8190935907809330
:10193000580781E0898305C083E0898302C082E083
:101940008983898128960FB6F894DEBF0FBECDBF7C
:10195000CF91DF9108951F920F920FB60F9211242D
:101960002F933F934F935F936F937F938F939F93A7
:10197000AF93BF93EF93FF93DF93CF93CDB7DEB7D2
:101980008091500790915107009749F0E0915007DE
:10199000F091510780915607909157070995CF9183
:1019A000DF91FF91EF91BF91AF919F918F917F91C7
:1019B0006F915F914F913F912F910F900FBE0F90BC
:1019C0001F9018951F920F920FB60F9211242F930C
:1019D0003F934F935F936F937F938F939F93AF93B7
:1019E000BF93EF93FF93DF93CF93CDB7DEB7809193
:1019F000520790915307009749F0E0915207F091F8
:101A0000530780915807909159070995CF91DF911D
:101A1000FF91EF91BF91AF919F918F917F916F91C6
:101A20005F914F913F912F910F900FBE0F901F909C
:101A300018951F920F920FB60F9211242F933F9378
:101A40004F935F936F937F938F939F93AF93BF93C6
:101A5000EF93FF93DF93CF93CDB7DEB78091540719
:101A600090915507009749F0E0915407F091550780
:101A700080915A0790915B070995CF91DF91FF9173
:101A8000EF91BF91AF919F918F917F916F915F91F6
:101A90004F913F912F910F900FBE0F901F9018956F
:101AA000DF93CF930F92CDB7DEB71982A3E5B0E0F5
:101AB000E3E5F0E080818B7F8C93A3E5B0E0E3E584
:101AC000F0E0808182608C93A3E5B0E0E3E5F0E094
:101AD00080818E7F8C9381E08983A3E5B0E0E3E58C
:101AE000F0E0808188608C93A3E5B0E0E3E5F0E06E
:101AF000808180648C93A3E5B0E0E3E5F0E0808131
:101B00008F7E8C93A3E5B0E0E3E5F0E08081806216
:101B10008C9381E0898389810F90CF91DF91089523
:101B2000DF93CF9300D0CDB7DEB78A831982ECE57F
:101B3000F0E08A81808381E0898389810F900F9012
:101B4000CF91DF910895DF93CF9300D0CDB7DEB76B
:101B50008A831982E2E5F0E08A81808381E08983CB
:101B600089810F900F90CF91DF910895EF92FF92AE
:101B70000F931F93DF93CF93CDB7DEB72D970FB69B
:101B8000F894DEBF0FBECDBF9B838A837D836C83B9
:101B90002E833F8348875987EA86FB860C871D87FB
:101BA000198289812D960FB6F894DEBF0FBECDBF86
:101BB000CF91DF911F910F91FF90EF900895DF93E8
:101BC000CF9300D00F92CDB7DEB78B831A828B8173
:101BD000882F90E0A0E0B0E0BC01CD010E94D904C4
:101BE000DC01CB01BC01CD0120E030E048EC52E447
:101BF0000E941903DC01CB01BC01CD0120E030E0E3
:101C000040E853E40E941F02DC01CB01BC01CD017E
:101C10000E944900DC01CB0189838981815089833D
:101C200089810E94900D81E08A838A810F900F90B4
:101C30000F90CF91DF910895DF93CF9300D000D024
:101C40000F92CDB7DEB79B838A837D836C83198225
:101C50008A819B81009779F08A819B8190936D079F
:101C600080936C078C819D8190937307809372079A
:101C700081E0898302C082E0898389810F900F907F
:101C80000F900F900F90CF91DF910895DF93CF9336
:101C900000D000D00F92CDB7DEB79B838A837D83BF
:101CA0006C8319828A819B81009779F08A819B815C
:101CB00090936F0780936E078C819D819093750739
:101CC0008093740781E0898302C082E089838981DF
:101CD0000F900F900F900F900F90CF91DF9108957C
:101CE000DF93CF930F92CDB7DEB71982A9E5B0E0AD
:101CF000E9E5F0E0808181608C9381E089838981CE
:101D00000F90CF91DF910895DF93CF930F92CDB7CE
:101D1000DEB71982A9E5B0E0E9E5F0E080818260F4
:101D20008C9381E0898389810F90CF91DF91089511
:101D3000DF93CF93CDB7DEB766970FB6F894DEBFCB
:101D40000FBECDBF6F87788B898B9A8B5C8B4B8B4B
:101D50003E8B2D8B1E868FE692E1A3E8BEE38A8739
:101D60009B87AC87BD876F85788989899A890E940E
:101D7000D904DC01CB01BC01CD012A853B854C8512
:101D80005D850E941903DC01CB018E839F83A887A8
:101D9000B9876E817F81888599850E944900DC0121
:101DA000CB01BC01CD010E94D9049B01AC016E8125
:101DB0007F81888599850E94C101DC01CB01BC012E
:101DC000CD0120E030E040E050E00E94C5038823D0
:101DD00009F464C06E817F81888599850E944900DD
:101DE000DC01CB010196A11DB11D8A839B83AC83CD
:101DF000BD836E817F81888599850E944900DC01C1
:101E0000CB01BC01CD010E94D9049B01AC016E81C4
:101E10007F81888599850E94C101DC01CB018E8379
:101E20009F83A887B9876E817F818885998520E007
:101E300030E040E853EC0E941F02DC01CB01BC0102
:101E4000CD0120E030E040E853E40E94F201DC01E3
:101E5000CB01BC01CD010E944900DC01CB0189838B
:101E60008A819B81AC81BD818093760790937707AF
:101E7000A0937807B09379078981882F90E0A0E03C
:101E8000B0E080937A0790937B07A0937C07B09390
:101E90007D07E2E5F0E08981808310C06E817F815B
:101EA000888599850E944900DC01CB0180937607E3
:101EB00090937707A0937807B09379078B899C89D3
:101EC000009769F08B899C8990936D0780936C07CC
:101ED0008D899E89909373078093720702C082E078
:101EE0008E87A9E5B0E0E9E5F0E0808181608C9320
:101EF0008E8566960FB6F894DEBF0FBECDBFCF912C
:101F0000DF910895DF93CF93CDB7DEB766970FB615
:101F1000F894DEBF0FBECDBF6B8B7C8B8D8B9E8B01
:101F20001A8AA9E5B0E0E9E5F0E080818E7F8C9324
:101F30008FE692E1A3E8BEE38E879F87A88BB98BDB
:101F40006B897C898D899E890E94D904DC01CB0133
:101F5000BC01CD012E853F85488959890E9419030E
:101F6000DC01CB018A879B87AC87BD876A857B852F
:101F70008C859D850E944900DC01CB01BC01CD010F
:101F80000E94D9049B01AC016A857B858C859D8567
:101F90000E94C101DC01CB01BC01CD0120E030E099
:101FA00040E050E00E94C503882309F46FC06A85B1
:101FB0007B858C859D850E944900DC01CB010196C3
:101FC000A11DB11D8E839F83A887B9876A857B85F4
:101FD0008C859D850E944900DC01CB01BC01CD01AF
:101FE0000E94D9049B01AC016A857B858C859D8507
:101FF0000E94C101DC01CB018A879B87AC87BD872A
:102000006A857B858C859D8520E030E040E853EC37
:102010000E941F02DC01CB01BC01CD0120E030E0B9
:1020200040E853E40E94F201DC01CB01BC01CD0188
:102030000E944900DC01CB018D83E2E5F0E08D8157
:1020400080831BC0E8E5F0E08081882F90E08170FC
:1020500090700097B9F3A8E5B0E0E8E5F0E0808182
:1020600081608C938E819F81A885B9850197A10994
:10207000B1098E839F83A887B9878E819F81A885A8
:10208000B9850097A105B105E9F630C06A857B8561
:102090008C859D850E944900DC01CB0189839A8350
:1020A000AB83BC831BC0E8E5F0E08081882F90E023
:1020B000817090700097B9F3A8E5B0E0E8E5F0E032
:1020C000808181608C9389819A81AB81BC810197E9
:1020D000A109B10989839A83AB83BC8389819A81E1
:1020E000AB81BC810097A105B105E9F68A896696A6
:1020F0000FB6F894DEBF0FBECDBFCF91DF9108952C
:102100001F920F920FB60F9211242F933F934F936C
:102110005F936F937F938F939F93AF93BF93EF934F
:10212000FF93DF93CF93CDB7DEB780916A0790918D
:102130006B07009709F46AC080915C07882F90E0D4
:10214000A0E0B0E020915E0730915F07409160070A
:1021500050916107BC01CD010E94D9359B01AC01B2
:102160008091660790916707A0916807B091690711
:10217000281739074A075B0709F048C080916906AC
:1021800090916A06A0916B06B0916C0620915E0753
:1021900030915F074091600750916107BC01CD010C
:1021A0000E94D9359B01AC01809162079091630731
:1021B000A0916407B091650782179307A407B5073C
:1021C00028F18091690690916A06A0916B06B09102
:1021D0006C060196A11DB11D8093690690936A0655
:1021E000A0936B06B0936C06E0916A07F0916B07C1
:1021F000809170079091710709951092660710926F
:102200006707109268071092690733C080916607CC
:1022100090916707A0916807B09169070196A11D89
:10222000B11D8093660790936707A0936807B093EA
:1022300069078091660790916707A0916807B09140
:10224000690720915C07222F30E040E050E0BC019C
:10225000CD010E94F835DC01CB010097A105B10545
:1022600041F480915D07882321F080915D070E94F1
:10227000A30D80916C0790916D07009749F0E09154
:102280006C07F0916D078091720790917307099523
:10229000CF91DF91FF91EF91BF91AF919F918F917E
:1022A0007F916F915F914F913F912F910F900FBE52
:1022B0000F901F9018951F920F920FB60F92112436
:1022C0002F933F934F935F936F937F938F939F933E
:1022D000AF93BF93EF93FF93DF93CF93CDB7DEB769
:1022E00080916E0790916F07009749F0E0916E071B
:1022F000F0916F0780917407909175070995CF91C0
:10230000DF91FF91EF91BF91AF919F918F917F915D
:102310006F915F914F913F912F910F900FBE0F9052
:102320001F901895DF93CF930F92CDB7DEB7198228
:10233000AEE4B0E0EEE4F0E0808180648C9381E074
:10234000898389810F90CF91DF910895DF93CF9397
:102350000F92CDB7DEB71982A9E5B0E0E9E5F0E06C
:10236000808180628C9381E0898389810F90CF91F5
:10237000DF910895DF93CF930F92CDB7DEB7198227
:10238000A9E5B0E0E9E5F0E080818F7D8C9381E004
:10239000898389810F90CF91DF910895DF93CF9347
:1023A00000D0CDB7DEB78A8319828A81813051F49B
:1023B000AEE4B0E0EEE4F0E0808180648C9381E0F4
:1023C00089830FC08A81823051F4AEE4B0E0EEE43C
:1023D000F0E080818F7B8C9381E0898302C083E071
:1023E000898389810F900F90CF91DF910895DF93BA
:1023F000CF9300D00F92CDB7DEB79B838A8319822B
:10240000E6E4F0E080819181EA81FB819183808321
:1024100081E0898389810F900F900F90CF91DF9198
:102420000895DF93CF9300D000D00F92CDB7DEB7E1
:102430009B838A837D836C8319828A819B81009729
:1024400079F08A819B8190937F0780937E078C81AE
:102450009D81909381078093800781E0898302C0EA
:1024600082E0898389810F900F900F900F900F90D9
:10247000CF91DF9108951F920F920FB60F92112402
:102480002F933F934F935F936F937F938F939F937C
:10249000AF93BF93EF93FF93DF93CF93CDB7DEB7A7
:1024A00080917E0790917F07009749F0E0917E0729
:1024B000F0917F0780918007909181070995CF91D6
:1024C000DF91FF91EF91BF91AF919F918F917F919C
:1024D0006F915F914F913F912F910F900FBE0F9091
:1024E0001F901895DF93CF930F92CDB7DEB7198267
:1024F000E0E2F0E080E28083A1E2B0E0E1E2F0E03F
:1025000080818E7F8C93A1E2B0E0E1E2F0E08081F7
:102510008D7F8C93A2E2B0E0E2E2F0E080818E7FDA
:102520008C93E2E2F0E08AE08083A6E5B0E0E6E5A5
:10253000F0E0808180688C93A6E5B0E0E6E5F0E00D
:10254000808184608C9381E0898389810F90CF9111
:10255000DF910895DF93CF930F92CDB7DEB7198245
:10256000E6E5F0E084EA8083E6E5F0E08081882318
:10257000DCF7E1E2F0E08081882F90E0887F9070C6
:102580008830910511F481E0898389810F90CF9182
:10259000DF910895DF93CF930F92CDB7DEB7198205
:1025A000A6E5B0E0E6E5F0E0808180628C93A6E5E8
:1025B000B0E0E6E5F0E0808180688C93E6E5F0E04D
:1025C00080818823DCF7E1E2F0E08081882F90E0D1
:1025D000887F90708031910511F481E08983898131
:1025E0000F90CF91DF910895DF93CF930F92CDB7E6
:1025F000DEB71982E6E5F0E084E98083E6E5F0E005
:102600008081882F90E0807190700097B9F7E1E2A7
:10261000F0E08081882F90E0887F90708835910568
:10262000A1F0E1E2F0E08081882F90E0887F907057
:102630008035910551F0E1E2F0E08081882F90E053
:10264000887F90708833910511F481E089838981B6
:102650000F90CF91DF910895DF93CF9300D00F9229
:10266000CDB7DEB78A836B8319828A81823008F402
:102670003FC08A818737E0F58B81882319F08B81F1
:102680008130B1F5E3E2F0E08A81882F90E0880F95
:10269000991F982F8B81892B8083E6E5F0E084E8F1
:1026A0008083E6E5F0E080818823DCF7E1E2F0E07A
:1026B0008081882F90E0887F90708831910531F477
:1026C0008B81882319F481E0898314C0E1E2F0E072
:1026D0008081882F90E0887F90708034910531F45C
:1026E0008B81813019F481E0898304C0198202C092
:1026F00083E0898389810F900F900F90CF91DF91B4
:102700000895DF93CF9300D0CDB7DEB78A831982C7
:10271000E3E2F0E08A818083A6E5B0E0E6E5F0E060
:10272000808184688C93E6E5F0E080818823DCF783
:10273000E1E2F0E08081882F90E0887F907088321D
:10274000910511F481E0898389810F900F90CF91D9
:10275000DF910895DF93CF930F92CDB7DEB7198243
:10276000A6E5B0E0E6E5F0E0808180648C93A6E524
:10277000B0E0E6E5F0E0808180688C93E6E5F0E08B
:1027800080818823DCF7E1E2F0E08081882F90E00F
:10279000887F9070883A910519F481E089830CC094
:1027A000E1E2F0E08081882F90E0887F90708036B1
:1027B000910511F481E0898389810F90CF91DF9198
:1027C0000895DF93CF9300D00F92CDB7DEB79B83F0
:1027D0008A831982A6E5B0E0E6E5F0E080818068B2
:1027E0008C93E6E5F0E080818823DCF7E1E2F0E01D
:1027F0008081882F90E0887F90708035910549F422
:10280000E3E2F0E08081EA81FB81808381E08983DB
:1028100012C0E1E2F0E08081882F90E0887F907024
:102820008835910541F4E3E2F0E08081EA81FB81A3
:10283000808381E0898389810F900F900F90CF91E1
:10284000DF910895DF93CF930F92CDB7DEB7198252
:10285000AFE5B0E0EFE5F0E0808180688C9381E047
:10286000898389810F90CF91DF910895DF93CF9372
:102870000F92CDB7DEB71982AFE5B0E0EFE5F0E03B
:1028800080818F778C9381E0898389810F90CF91AC
:10289000DF910895DF93CF93CDB7DEB72C970FB6B6
:1028A000F894DEBF0FBECDBF9C838B831A828B81D1
:1028B0009C81009709F442C1198219823AC1898129
:1028C000882F90E09C01220F331F8B819C81FC019B
:1028D000E20FF31F8081813009F028C18981282F00
:1028E00030E03C872B878B859C858130910509F4EE
:1028F0007BC02B853C852230310509F4E5C08B85F2
:102900009C85009709F012C1ABE5B0E0EBE5F0E083
:10291000808180648C938981882F90E09C01220FB4
:10292000331F8B819C81FC01E20FF31F8181282FD3
:1029300030E03A87298789859A858230910529F187
:1029400029853A852330310534F489859A8581308B
:10295000910561F046C029853A852330310599F10A
:1029600089859A8584309105F9F03BC0A5E5B0E0F2
:10297000E5E5F0E080818D7F8C93A5E5B0E0E5E5AD
:10298000F0E080818E7F8C932CC0A5E5B0E0E5E57A
:10299000F0E080818D7F8C93A5E5B0E0E5E5F0E087
:1029A000808181608C931DC0A5E5B0E0E5E5F0E095
:1029B000808182608C93A5E5B0E0E5E5F0E0808160
:1029C0008E7F8C930EC0A5E5B0E0E5E5F0E0808158
:1029D00082608C93A5E5B0E0E5E5F0E08081816060
:1029E0008C9381E08A83A2C0ABE5B0E0EBE5F0E038
:1029F000808180688C938981882F90E09C01220FD0
:102A0000331F8B819C81FC01E20FF31F8181282FF2
:102A100030E038872F838F8198858230910529F1A6
:102A20002F8138852330310534F48F8198858130AA
:102A3000910561F046C02F8138852330310599F129
:102A40008F81988584309105F9F03BC0A5E5B0E011
:102A5000E5E5F0E08081877F8C93A5E5B0E0E5E5D2
:102A6000F0E080818B7F8C932CC0A5E5B0E0E5E59C
:102A7000F0E08081877F8C93A5E5B0E0E5E5F0E0AC
:102A8000808184608C931DC0A5E5B0E0E5E5F0E0B1
:102A9000808188608C93A5E5B0E0E5E5F0E0808179
:102AA0008B7F8C930EC0A5E5B0E0E5E5F0E080817A
:102AB00088608C93A5E5B0E0E5E5F0E08081846076
:102AC0008C9381E08A8332C0ABE5B0E0EBE5F0E0C7
:102AD000808180628C938981882F90E09C01220FF5
:102AE000331F8B819C81FC01E20FF31F8181282F12
:102AF00030E03E832D838D819E818330910569F086
:102B00002D813E812430310579F4A4E5B0E0E4E57F
:102B1000F0E080818F7B8C9307C0A4E5B0E0E4E512
:102B2000F0E0808180648C9381E08A8389818F5F6B
:102B300089838981833008F4C2CE02C082E08A830F
:102B40008A812C960FB6F894DEBF0FBECDBFCF9111
:102B5000DF910895DF93CF9300D000D0CDB7DEB7DB
:102B60008A8319828A81833088F58A81282F30E010
:102B70003C832B838B819C818130910599F02B8143
:102B80003C8122303105C1F08B819C81009701F599
:102B9000ABE5B0E0EBE5F0E0808180648C9381E010
:102BA000898316C0ABE5B0E0EBE5F0E0808180689A
:102BB0008C9381E089830CC0ABE5B0E0EBE5F0E0FD
:102BC000808180628C9381E0898302C083E0898365
:102BD00089810F900F900F900F90CF91DF91089502
:102BE000DF93CF9300D000D0CDB7DEB78A831982B0
:102BF0008A81833088F58A81282F30E03C832B83BB
:102C00008B819C818130910599F02B813C81223010
:102C10003105C1F08B819C81009701F5ABE5B0E0F7
:102C2000EBE5F0E080818F7B8C9381E0898316C097
:102C3000ABE5B0E0EBE5F0E080818F778C9381E04D
:102C400089830CC0ABE5B0E0EBE5F0E080818F7DDF
:102C50008C9381E0898302C083E0898389810F900E
:102C60000F900F900F90CF91DF910895DF93CF9346
:102C7000CDB7DEB72B970FB6F894DEBF0FBECDBF32
:102C80008A836B8319828A81833008F0F3C08A813A
:102C9000282F30E03B872A878A859B8581309105E4
:102CA00009F469C02A853B852230310509F4C1C089
:102CB0008A859B85009709F0DFC08B81282F30E043
:102CC00039872887888599858230910529F128855B
:102CD00039852330310534F4888599858130910513
:102CE00061F046C0288539852330310599F1888502
:102CF000998584309105F9F03BC0A5E5B0E0E5E5A4
:102D0000F0E080818D7F8C93A5E5B0E0E5E5F0E013
:102D100080818E7F8C932CC0A5E5B0E0E5E5F0E0E6
:102D200080818D7F8C93A5E5B0E0E5E5F0E08081C2
:102D300081608C931DC0A5E5B0E0E5E5F0E0808101
:102D400082608C93A5E5B0E0E5E5F0E080818E7FC0
:102D50008C930EC0A5E5B0E0E5E5F0E080818260EF
:102D60008C93A5E5B0E0E5E5F0E0808181608C938F
:102D700081E0898381C08B81282F30E03F832E83BF
:102D80008E819F818230910529F12E813F812330F0
:102D9000310534F48E819F818130910561F046C008
:102DA0002E813F812330310599F18E819F818430BE
:102DB0009105F9F03BC0A5E5B0E0E5E5F0E08081E4
:102DC000877F8C93A5E5B0E0E5E5F0E080818B7F1F
:102DD0008C932CC0A5E5B0E0E5E5F0E08081877F2D
:102DE0008C93A5E5B0E0E5E5F0E0808184608C930C
:102DF0001DC0A5E5B0E0E5E5F0E0808188608C933A
:102E0000A5E5B0E0E5E5F0E080818B7F8C930EC016
:102E1000A5E5B0E0E5E5F0E0808188608C93A5E56C
:102E2000B0E0E5E5F0E0808184608C9381E0898307
:102E300023C08B81282F30E03D832C838C819D81A2
:102E40008330910569F02C813D812430310579F47E
:102E5000A4E5B0E0E4E5F0E080818F7B8C9307C0CF
:102E6000A4E5B0E0E4E5F0E0808180648C9381E04B
:102E7000898302C083E0898389812B960FB6F894F9
:102E8000DEBF0FBECDBFCF91DF910895DF93CF930B
:102E900000D000D000D0CDB7DEB79B838A837D837E
:102EA0006C834E8319828A819B81009709F18E8100
:102EB0008330D8F48E81882F90E02A813B81880F5F
:102EC000991FFC01EE57F84F318320838E81882FA4
:102ED00090E0880F991FFC01E857F84F8C819D8185
:102EE0009183808381E0898305C083E0898302C068
:102EF00082E08983898126960FB6F894DEBF0FBEE3
:102F0000CDBFCF91DF9108951F920F920FB60F9210
:102F100011242F933F934F935F936F937F938F93DE
:102F20009F93AF93BF93EF93FF93DF93CF93CDB76F
:102F3000DEB78091820790918307009749F0E09176
:102F40008207F091830780918807909189070995FE
:102F5000CF91DF91FF91EF91BF91AF919F918F91B1
:102F60007F916F915F914F913F912F910F900FBE85
:102F70000F901F9018951F920F920FB60F92112469
:102F80002F933F934F935F936F937F938F939F9371
:102F9000AF93BF93EF93FF93DF93CF93CDB7DEB79C
:102FA0008091840790918507009749F0E09184070C
:102FB000F091850780918A0790918B070995CF91B1
:102FC000DF91FF91EF91BF91AF919F918F917F9191
:102FD0006F915F914F913F912F910F900FBE0F9086
:102FE0001F9018951F920F920FB60F9211242F93D6
:102FF0003F934F935F936F937F938F939F93AF9381
:10300000BF93EF93FF93DF93CF93CDB7DEB780915C
:10301000860790918707009749F0E0918607F09125
:10302000870780918C0790918D070995CF91DF914B
:10303000FF91EF91BF91AF919F918F917F916F9190
:103040005F914F913F912F910F900FBE0F901F9066
:103050001895DF93CF930F92CDB7DEB71982EAE3CD
:10306000F0E08FEF8083E7E3F0E086E98083E4E33C
:10307000F0E086E98083E1E3F0E086E98083EBE33A
:10308000F0E01082E8E3F0E08AE58083E5E3F0E039
:103090008AE58083E2E3F0E08AE5808381E089834A
:1030A00089810F90CF91DF910895DF93CF9300D066
:1030B00000D00F92CDB7DEB78A836B8319828A81E5
:1030C0008430A8F58A81282F30E03D832C838C81C1
:1030D0009D8181309105D1F02C813D8122303105D7
:1030E0002CF48C819D81009761F01EC02C813D8164
:1030F0002230310581F08C819D818330910581F0F2
:1031000013C0EAE3F0E08B8180830EC0E7E3F0E0D8
:103110008B81808309C0E4E3F0E08B81808304C06D
:10312000E1E3F0E08B81808381E0898302C083E06A
:10313000898389810F900F900F900F900F90CF91FE
:10314000DF910895DF93CF9300D000D00F92CDB7D9
:10315000DEB78A836B8319828A818430A8F58A81DD
:10316000282F30E03D832C838C819D818130910517
:10317000D1F02C813D81223031052CF48C819D8150
:10318000009761F01EC02C813D812230310581F015
:103190008C819D818330910581F013C0EBE3F0E0D9
:1031A0008B8180830EC0E8E3F0E08B81808309C0CF
:1031B000E5E3F0E08B81808304C0E2E3F0E08B8103
:1031C000808381E0898302C083E0898389810F90B5
:1031D0000F900F900F900F90CF91DF910895DF9394
:1031E000CF9300D000D0CDB7DEB78A8319828A8111
:1031F000843008F041C08A81282F30E03C832B8343
:103200008B819C8181309105E9F02B813C812230BA
:1032100031052CF48B819C81009761F02AC02B81B1
:103220003C8122303105B1F08B819C818330910546
:10323000C9F01FC0ABE3B0E0EBE3F0E08081809524
:103240008C9317C0A8E3B0E0E8E3F0E080818095BC
:103250008C930FC0A5E3B0E0E5E3F0E080818095BA
:103260008C9307C0A2E3B0E0E2E3F0E080818095B8
:103270008C9381E0898302C083E0898389810F90E8
:103280000F900F900F90CF91DF910895DF93CF9320
:1032900000D000D000D0CDB7DEB78A837C836B83AB
:1032A00019828B819C81009709F441C08A81843006
:1032B000D8F58A81282F30E03E832D838D819E8131
:1032C00081309105E1F02D813E81223031052CF4D1
:1032D0008D819E81009761F02CC02D813E8122302E
:1032E0003105A1F08D819E8183309105B1F021C01F
:1032F000E9E3F0E08081EB81FC8180831AC0E6E3A2
:10330000F0E08081EB81FC81808313C0E3E3F0E097
:103310008081EB81FC8180830CC0E0E3F0E0808160
:10332000EB81FC81808305C083E0898302C082E059
:103330008983898126960FB6F894DEBF0FBECDBF74
:10334000CF91DF910895DF93CF9300D000D000D0CC
:10335000CDB7DEB78A836B834C8319828A81843030
:1033600008F0D1C08B81883008F0CDC08C818230CC
:1033700008F0C9C08A81282F30E03E832D836D81FB
:103380007E816130710509F441C08D819E8182305A
:10339000910534F42D813E812115310571F0B0C0C5
:1033A0006D817E816230710509F459C08D819E81E5
:1033B0008330910509F47CC0A3C0AAE3B0E0EAE33E
:1033C000F0E08081482F8B81282F30E081E090E071
:1033D00002C0880F991F2A95E2F7809584238C9369
:1033E000AAE3B0E0EAE3F0E08081482F8C81282F47
:1033F00030E08B81882F90E0B90102C0660F771F03
:103400008A95E2F7CB01842B8C937AC0A7E3B0E0D6
:10341000E7E3F0E08081482F8B81282F30E081E0C6
:1034200090E002C0880F991F2A95E2F780958423C7
:103430008C93A7E3B0E0E7E3F0E08081482F8C8134
:10344000282F30E08B81882F90E0B90102C0660FF1
:10345000771F8A95E2F7CB01842B8C9351C0A4E3AC
:10346000B0E0E4E3F0E08081482F8B81282F30E04A
:1034700081E090E002C0880F991F2A95E2F78095BD
:1034800084238C93A4E3B0E0E4E3F0E08081482F50
:103490008C81282F30E08B81882F90E0B90102C009
:1034A000660F771F8A95E2F7CB01842B8C9328C097
:1034B000A1E3B0E0E1E3F0E08081482F8B81282F89
:1034C00030E081E090E002C0880F991F2A95E2F772
:1034D000809584238C93A1E3B0E0E1E3F0E0808168
:1034E000482F8C81282F30E08B81882F90E0B90104
:1034F00002C0660F771F8A95E2F7CB01842B8C936D
:1035000081E0898302C083E08983898126960FB692
:10351000F894DEBF0FBECDBFCF91DF910895DF934A
:10352000CF9300D000D000D0CDB7DEB78A836B83B5
:103530004C8319828A81843008F0D1C08B81883015
:1035400008F0CDC08C81823008F0C9C08A81282F54
:1035500030E03E832D836D817E816130710509F4F9
:1035600041C08D819E818230910534F42D813E8150
:103570002115310571F0B0C06D817E816230710519
:1035800009F459C08D819E818330910509F47CC076
:10359000A3C0ABE3B0E0EBE3F0E08081482F8B8188
:1035A000282F30E081E090E002C0880F991F2A9513
:1035B000E2F7809584238C93ABE3B0E0EBE3F0E09B
:1035C0008081482F8C81282F30E08B81882F90E0DC
:1035D000B90102C0660F771F8A95E2F7CB01842BF1
:1035E0008C937AC0A8E3B0E0E8E3F0E08081482F54
:1035F0008B81282F30E081E090E002C0880F991F76
:103600002A95E2F7809584238C93A8E3B0E0E8E361
:10361000F0E08081482F8C81282F30E08B81882F2B
:1036200090E0B90102C0660F771F8A95E2F7CB01DF
:10363000842B8C9351C0A5E3B0E0E5E3F0E08081FA
:10364000482F8B81282F30E081E090E002C0880F66
:10365000991F2A95E2F7809584238C93A5E3B0E027
:10366000E5E3F0E08081482F8C81282F30E08B81CA
:10367000882F90E0B90102C0660F771F8A95E2F7A4
:10368000CB01842B8C9328C0A2E3B0E0E2E3F0E00E
:103690008081482F8B81282F30E081E090E002C0AC
:1036A000880F991F2A95E2F7809584238C93A2E3D3
:1036B000B0E0E2E3F0E08081482F8C81282F30E0F9
:1036C0008B81882F90E0B90102C0660F771F8A9521
:1036D000E2F7CB01842B8C9381E0898302C083E0E5
:1036E0008983898126960FB6F894DEBF0FBECDBFC1
:1036F000CF91DF910895DF93CF9300D000D00F9248
:10370000CDB7DEB78A836B8319828A81843008F053
:1037100075C08B81883008F071C08A81282F30E015
:103720003D832C838C819D818130910549F12C81D1
:103730003D81223031052CF48C819D81009761F010
:103740005AC02C813D812230310571F18C819D81DF
:1037500083309105E9F14FC0ABE3B0E0EBE3F0E07B
:103760008081482F8B81282F30E081E090E0022E6D
:1037700002C0880F991F0A94E2F784278C933BC0FC
:10378000A8E3B0E0E8E3F0E08081482F8B81282FA8
:1037900030E081E090E0022E02C0880F991F0A9469
:1037A000E2F784278C9327C0A5E3B0E0E5E3F0E0DF
:1037B0008081482F8B81282F30E081E090E0022E1D
:1037C00002C0880F991F0A94E2F784278C9313C0D4
:1037D000A2E3B0E0E2E3F0E08081482F8B81282F64
:1037E00030E081E090E0022E02C0880F991F0A9419
:1037F000E2F784278C9381E0898302C083E0898388
:1038000089810F900F900F900F900F90CF91DF91C3
:103810000895DF93CF93CDB7DEB727970FB6F8940F
:10382000DEBF0FBECDBF8A836B835D834C8319825D
:103830008C819D81009709F47CC08A81843008F0D6
:1038400075C08B81883008F071C08A81282F30E0E4
:103850003F832E834E815F814130510559F18E8126
:103860009F818230910534F42E813F8121153105ED
:1038700069F061C04E815F814230510579F18E81DE
:103880009F818330910509F43DC055C0E9E3F0E024
:103890008081282F30E08B81882F90E0A90102C021
:1038A000559547958A95E2F7CA018170EC81FD81B3
:1038B000808341C0E6E3F0E08081282F30E08B81F7
:1038C000882F90E0A90102C0559547958A95E2F7A7
:1038D000CA018170EC81FD8180832DC0E3E3F0E0BB
:1038E0008081282F30E08B81882F90E0A90102C0D1
:1038F000559547958A95E2F7CA018170EC81FD8163
:10390000808319C0E0E3F0E08081282F30E08B81D4
:10391000882F90E0A90102C0559547958A95E2F756
:10392000CA018170EC81FD81808305C083E08983B9
:1039300002C082E08983898127960FB6F894DEBFA2
:103940000FBECDBFCF91DF910895DF93CF930F923C
:10395000CDB7DEB71982A6E2B0E0E6E2F0E0808102
:1039600084608C93A6E2B0E0E6E2F0E080818260C1
:103970008C93A6E2B0E0E6E2F0E0808181608C9377
:1039800081E08983A7E2B0E0E7E2F0E080818F7711
:103990008C93A7E2B0E0E7E2F0E0808180648C9352
:1039A00081E08983A7E2B0E0E7E2F0E080818F7DEB
:1039B0008C9381E0898389810F90CF91DF91089565
:1039C000DF93CF930F92CDB7DEB71982A6E2B0E0B6
:1039D000E6E2F0E0808180648C9381E089838981D4
:1039E0000F90CF91DF910895DF93CF930F92CDB7D2
:1039F000DEB71982E6E2F0E0808182958F70882F31
:103A000090E0817090700097A9F3A6E2B0E0E6E242
:103A1000F0E0808180618C9381E0898389810F90BF
:103A2000CF91DF910895DF93CF9300D00F92CDB760
:103A3000DEB79B838A831982E4E2F0E08081869579
:103A40008695EA81FB818083EA81FB818081282F32
:103A5000E5E2F0E08081882F90E00024969587953C
:103A60000794969587950794982F802D822BEA814D
:103A7000FB81808381E0898389810F900F900F9073
:103A8000CF91DF910895DF93CF9300D00F92CDB700
:103A9000DEB79B838A831982E4E2F0E08081882F7D
:103AA00090E0EA81FB8191838083EA81FB81208120
:103AB0003181E5E2F0E08081882F90E0982F88271F
:103AC000822B932BEA81FB819183808381E0898320
:103AD00089810F900F900F90CF91DF910895DF9320
:103AE000CF9300D000D00F92CDB7DEB79B838A83EF
:103AF0007D836C8319828A819B81009779F08A810A
:103B00009B8190938F0780938E078C819D819093EA
:103B100091078093900781E0898302C082E08983C6
:103B200089810F900F900F900F900F90CF91DF91A0
:103B30000895DF93CF9300D0CDB7DEB78A83198283
:103B40008A81803290F4A7E2B0E0E7E2F0E0808181
:103B5000807E8C93A7E2B0E0E7E2F0E090818A817A
:103B6000892B8C9381E0898302C083E089838981DA
:103B70000F900F90CF91DF910895DF93CF9300D0F6
:103B800000D0CDB7DEB78A831982A6E2B0E0E6E2C4
:103B9000F0E080818F7D8C938A81282F30E03C83F8
:103BA0002B838B819C818430910509F477C02B8114
:103BB0003C81253031058CF48B819C8182309105CC
:103BC000E9F12B813C81233031050CF04FC08B8112
:103BD0009C8181309105D1F0D9C02B813C81263068
:103BE000310509F48BC08B819C81863091050CF4E2
:103BF0006DC02B813C812730310509F497C08B8142
:103C00009C818830910509F4A9C0C0C0A0E5B0E04E
:103C1000E0E5F0E080818F778C93A0E5B0E0E0E50F
:103C2000F0E080818F7B8C93A0E5B0E0E0E5F0E0F0
:103C300080818F7D8C9381E08983AAC0A0E5B0E06C
:103C4000E0E5F0E080818F778C93A0E5B0E0E0E5DF
:103C5000F0E080818F7B8C93A0E5B0E0E0E5F0E0C0
:103C6000808180628C9381E0898392C0A0E5B0E07E
:103C7000E0E5F0E080818F778C93A0E5B0E0E0E5AF
:103C8000F0E0808180648C93A0E5B0E0E0E5F0E0B6
:103C900080818F7D8C9381E089837AC0A0E5B0E03C
:103CA000E0E5F0E080818F778C93A0E5B0E0E0E57F
:103CB000F0E0808180648C93A0E5B0E0E0E5F0E086
:103CC000808180628C9381E0898362C0A0E5B0E04E
:103CD000E0E5F0E0808180688C93A0E5B0E0E0E56D
:103CE000F0E080818F7B8C93A0E5B0E0E0E5F0E030
:103CF00080818F7D8C9381E089834AC0A0E5B0E00C
:103D0000E0E5F0E0808180688C93A0E5B0E0E0E53C
:103D1000F0E080818F7B8C93A0E5B0E0E0E5F0E0FF
:103D2000808180628C9381E0898332C0A0E5B0E01D
:103D3000E0E5F0E0808180688C93A0E5B0E0E0E50C
:103D4000F0E0808180648C93A0E5B0E0E0E5F0E0F5
:103D500080818F7D8C9381E089831AC0A0E5B0E0DB
:103D6000E0E5F0E0808180688C93A0E5B0E0E0E5DC
:103D7000F0E0808180648C93A0E5B0E0E0E5F0E0C5
:103D8000808180628C9381E0898302C083E0898393
:103D9000A6E2B0E0E6E2F0E0808180628C93898167
:103DA0000F900F900F900F90CF91DF910895DF93B8
:103DB000CF930F92CDB7DEB71982A6E2B0E0E6E26C
:103DC000F0E080818F7D8C9381E0898389810F90E1
:103DD000CF91DF910895DF93CF930F92CDB7DEB7E8
:103DE0001982A6E2B0E0E6E2F0E0808188608C9380
:103DF00081E0898389810F90CF91DF910895DF93CE
:103E0000CF930F92CDB7DEB71982A6E2B0E0E6E21B
:103E1000F0E08081877F8C9381E0898389810F9096
:103E2000CF91DF910895DF93CF930F92CDB7DEB797
:103E30001982A6E2B0E0E6E2F0E0808180688C932F
:103E400081E0898389810F90CF91DF910895DF937D
:103E5000CF930F92CDB7DEB71982A6E2B0E0E6E2CB
:103E6000F0E080818F778C9381E0898389810F9046
:103E7000CF91DF910895DF93CF9300D000D0CDB7DD
:103E8000DEB79B838A836C8319820E94131F0E9472
:103E9000D71E8C810E94991D0E94E01C0E94FF1E6B
:103EA0000E94F41C8A819B810E94431D0E94271F4F
:103EB00089810F900F900F900F90CF91DF9108950F
:103EC0001F920F920FB60F9211242F933F934F938F
:103ED0005F936F937F938F939F93AF93BF93EF9372
:103EE000FF93DF93CF93CDB7DEB780918E0790918C
:103EF0008F07009749F0E0918E07F0918F0780912E
:103F00009007909191070995CF91DF91FF91EF91E3
:103F1000BF91AF919F918F917F916F915F914F91E1
:103F20003F912F910F900FBE0F901F901895DF9328
:103F3000CF930F92CDB7DEB719820E94690B8983A8
:103F400083E064E041E00E94A319898383E064E098
:103F500040E00E948F1A898380E29EE40E94F50B64
:103F6000898389810F90CF91DF910895DF93CF935B
:103F700000D000D000D0CDB7DEB78E831D828E81F9
:103F8000865A8E838E81882F90E0A0E0B0E028EEE4
:103F900033E040E050E0BC01CD010E94D935DC01A6
:103FA000CB0124EB30E040E050E0BC01CD010E94A9
:103FB000F835DA01C90188519C4FAF4FBF4F898353
:103FC0009A83AB83BC8389819A810E94DD0B8D83A8
:103FD0008D8126960FB6F894DEBF0FBECDBFCF9170
:103FE000DF910895DF93CF9300D000D00F92CDB72B
:103FF000DEB79C838B831A828B819C81009709F4A6
:1040000024C1198219821CC18981882F90E09C01EA
:10401000220F331F220F331F8B819C81FC01E20F83
:10402000F31F40818981882F90E09C01220F331F6C
:10403000220F331F8B819C81FC01E20FF31F9181C2
:10404000842F692F41E00E94A3198A838981882FD8
:1040500090E09C01220F331F220F331F8B819C8124
:10406000FC01E20FF31F8281882309F069C0898176
:10407000882F90E09C01220F331F220F331F8B816A
:104080009C81FC01E20FF31F8381893019F589813E
:10409000882F90E09C01220F331F220F331F8B814A
:1040A0009C81FC01E20FF31F40818981882F90E001
:1040B0009C01220F331F220F331F8B819C81FC0137
:1040C000E20FF31F9181842F692F40E00E948F1A25
:1040D0008A83B3C08981882F90E09C01220F331F0F
:1040E000220F331F8B819C81FC01E20FF31F838120
:1040F0008B3719F58981882F90E09C01220F331F9F
:10410000220F331F8B819C81FC01E20FF31F408142
:104110008981882F90E09C01220F331F220F331FCB
:104120008B819C81FC01E20FF31F9181842F692F09
:1041300041E00E948F1A8A8380C083E08D8389C00A
:104140008981882F90E09C01220F331F220F331F9B
:104150008B819C81FC01E20FF31F8281813009F089
:1041600069C08981882F90E09C01220F331F220FA4
:10417000331F8B819C81FC01E20FF31F8381893007
:1041800019F58981882F90E09C01220F331F220F9F
:10419000331F8B819C81FC01E20FF31F40818981D9
:1041A000882F90E09C01220F331F220F331F8B8139
:1041B0009C81FC01E20FF31F9181842F692F41E064
:1041C0000E948F1A8A8339C08981882F90E09C01D0
:1041D000220F331F220F331F8B819C81FC01E20FC2
:1041E000F31F83818B3719F58981882F90E09C011B
:1041F000220F331F220F331F8B819C81FC01E20FA2
:10420000F31F40818981882F90E09C01220F331F8A
:10421000220F331F8B819C81FC01E20FF31F9181E0
:10422000842F692F40E00E948F1A8A8306C083E0A2
:104230008D830FC083E08D830CC089818F5F89835C
:104240008981853008F4E0CE02C082E08A838A81C9
:104250008D838D810F900F900F900F900F90CF91C5
:10426000DF910895DF93CF9300D00F92CDB7DEB7E3
:104270009B838A8319828A819B81009729F1EA8135
:10428000FB818281882361F4EA81FB818081EA815C
:10429000FB819181692F40E00E948F1A898316C0AB
:1042A000EA81FB818281813061F4EA81FB81808136
:1042B000EA81FB819181692F41E00E948F1A8983F5
:1042C00005C083E0898302C082E0898389810F90E1
:1042D0000F900F90CF91DF910895DF93CF9300D08F
:1042E0000F92CDB7DEB79B838A8319828A819B8127
:1042F000009729F1EA81FB818281882361F4EA81B8
:10430000FB818081EA81FB819181692F41E00E94DC
:104310008F1A898316C0EA81FB818281813061F422
:10432000EA81FB818081EA81FB819181692F40E0F4
:104330000E948F1A898305C083E0898302C082E0CE
:10434000898389810F900F900F90CF91DF9108950D
:10435000DF93CF9300D000D0CDB7DEB79C838B83A3
:104360001A82198227C08981882F90E09C01220F30
:10437000331F8B819C81FC01E20FF31F80819181AF
:104380008F3F9105A1F08981882F90E09C01220F39
:10439000331F8B819C81FC01E20FF31F808191818F
:1043A000982F80E0692F40E00E94A3198A838981B9
:1043B0008F5F898389818823B1F28A810F900F9062
:1043C0000F900F90CF91DF910895DF93CF9300D09E
:1043D00000D0CDB7DEB79B838A836C8319828A8134
:1043E0009B81009741F08A819B816C810E943B1FD9
:1043F00081E0898302C082E0898389810F900F90D8
:104400000F900F90CF91DF9108950F931F93DF933B
:10441000CF93CDB7DEB7C754D0400FB6F894DEBF08
:104420000FBECDBFFE01E95BFF4F1082FE01ED5BC9
:10443000FF4F80E090E0ACE0B2E480839183A28300
:10444000B3838E01015C1F4FFE01ED5BFF4F608166
:1044500071818281938120E030E04AEF54E40E9430
:104460001F02DC01CB01F80180839183A283B38317
:10447000FE01FF96608171818281938120E030E0AE
:1044800040E85FE30E94550488232CF481E090E02B
:104490009EAF8DAF46C0FE01FF9660817181828123
:1044A000938120E03FEF4FE757E40E94F503181691
:1044B00064F5FE01ED5BFF4F608171818281938124
:1044C00020E030E040E251E40E941F02DC01CB0119
:1044D000BC01CD010E944900DC01CB019EAF8DAF34
:1044E0000FC088EC90E09CAF8BAF8BAD9CAD01977B
:1044F000F1F79CAF8BAF8DAD9EAD01979EAF8DAFA9
:104500008DAD9EAD009769F716C0FE01FF966081E4
:104510007181828193810E944900DC01CB019EAFB1
:104520008DAF8DAD9EAD9AAF89AF89AD9AAD019734
:10453000F1F79AAF89AF81E060E041E00E94A319F2
:1045400081E061E041E00E94A31981E062E041E086
:104550000E94A31981E063E041E00E94A31980E07A
:1045600066E041E00E94A31980E065E041E00E941E
:10457000A31980E064E041E00E94A31980E063E0B9
:1045800041E00E94A31980E062E041E00E94A3198B
:1045900080E061E041E00E94A31980E060E041E03A
:1045A0000E94A31988E30E942728FE01E95BFF4FC0
:1045B00081E0808380E090E0A0E8BFE38DAB9EAB1C
:1045C000AFABB8AF6DA97EA98FA998AD20E030E060
:1045D0004AEF54E40E941F02DC01CB0189AB9AAB85
:1045E000ABABBCAB69A97AA98BA99CA920E030E050
:1045F00040E85FE30E94550488232CF481E090E0BA
:1046000098AB8FA73FC069A97AA98BA99CA920E084
:104610003FEF4FE757E40E94F50318164CF56DA9DC
:104620007EA98FA998AD20E030E040E251E40E94DD
:104630001F02DC01CB01BC01CD010E944900DC015D
:10464000CB0198AB8FA70FC088EC90E09EA78DA7F9
:104650008DA59EA50197F1F79EA78DA78FA598A977
:10466000019798AB8FA78FA598A9009769F714C0F9
:1046700069A97AA98BA99CA90E944900DC01CB01F8
:1046800098AB8FA78FA598A99CA78BA78BA59CA556
:104690000197F1F79CA78BA78EE00E94272880E066
:1046A00090E0A0E8BFE38FA398A7A9A7BAA76FA13E
:1046B00078A589A59AA520E030E04AEF54E40E944D
:1046C0001F02DC01CB018BA39CA3ADA3BEA36BA1F6
:1046D0007CA18DA19EA120E030E040E85FE30E9434
:1046E000550488232CF481E090E09AA389A33FC06D
:1046F0006BA17CA18DA19EA120E03FEF4FE757E485
:104700000E94F50318164CF56FA178A589A59AA506
:1047100020E030E040E251E40E941F02DC01CB01C6
:10472000BC01CD010E944900DC01CB019AA389A301
:104730000FC088EC90E098A38F8F8F8D98A1019780
:10474000F1F798A38F8F89A19AA101979AA389A3C2
:1047500089A19AA1009769F714C06BA17CA18DA1D2
:104760009EA10E944900DC01CB019AA389A389A1E3
:104770009AA19E8F8D8F8D8D9E8D0197F1F79E8FC3
:104780008D8F81E00E94272880E090E0A0E0B0E4D7
:10479000898F9A8FAB8FBC8F698D7A8D8B8D9C8D15
:1047A00020E030E04AEF54E40E941F02DC01CB011C
:1047B0008D8B9E8BAF8BB88F6D897E898F89988DFD
:1047C00020E030E040E85FE30E94550488232CF4A9
:1047D00081E090E09C8B8B8B3FC06D897E898F89B7
:1047E000988D20E03FEF4FE757E40E94F50318163D
:1047F0004CF5698D7A8D8B8D9C8D20E030E040E208
:1048000051E40E941F02DC01CB01BC01CD010E94DA
:104810004900DC01CB019C8B8B8B0FC088EC90E0B6
:104820009A8B898B89899A890197F1F79A8B898B61
:104830008B899C8901979C8B8B8B8B899C8900979A
:1048400069F714C06D897E898F89988D0E9449000F
:10485000DC01CB019C8B8B8B8B899C89988B8F8700
:104860008F8598890197F1F7988B8F8786E00E9452
:10487000272880E090E0A0E8BFE38B879C87AD8786
:10488000BE876B857C858D859E8520E030E04AEF74
:1048900054E40E941F02DC01CB018F839887A98713
:1048A000BA876F81788589859A8520E030E040E875
:1048B0005FE30E94550488232CF481E090E09E83FE
:1048C0008D833FC06F81788589859A8520E03FEF91
:1048D0004FE757E40E94F50318164CF56B857C856D
:1048E0008D859E8520E030E040E251E40E941F0269
:1048F000DC01CB01BC01CD010E944900DC01CB01F0
:104900009E838D830FC088EC90E09C838B838B818A
:104910009C810197F1F79C838B838D819E81019708
:104920009E838D838D819E81009769F714C06F816E
:10493000788589859A850E944900DC01CB019E8398
:104940008D838D819E819A83898389819A81019744
:10495000F1F79A83898380E80E942728FE01E95BAA
:10496000FF4F8081C95BDF4F0FB6F894DEBF0FBEEB
:10497000CDBFCF91DF911F910F910895DF93CF931A
:1049800000D0CDB7DEB78A83198281E060E041E0D4
:104990000E948F1A89838A810E94CA2689810F907A
:1049A0000F90CF91DF910895DF93CF9300D00F92B6
:1049B000CDB7DEB79B838A83198213C0EA81FB815E
:1049C00080810E94BE248A819B81FC013196808176
:1049D000882311F481E089838A819B8101969B83DE
:1049E0008A83EA81FB818081882341F789810F9046
:1049F0000F900F90CF91DF910895DF93CF9300D068
:104A0000CDB7DEB78A83198281E060E040E00E9482
:104A10008F1A89838A810E94CA2689810F900F90FC
:104A2000CF91DF910895DF93CF9300D000D00F9204
:104A3000CDB7DEB78C836D83198280E88A8380ECE2
:104A40008B838C81882F90E09C0121503040CE01D7
:104A50000296FC01E20FF31F90818D81890F815036
:104A60000E94FD2481E0898389810F900F900F902F
:104A70000F900F90CF91DF910895DF93CF93CDB733
:104A8000DEB728970FB6F894DEBF0FBECDBF88877C
:104A90001F8288858A3028F48885805D0E94BE2424
:104AA00086C01E828AE090E0A0E0B0E08A839B830B
:104AB000AC83BD838885882F90E0A0E0B0E02A8198
:104AC0003B814C815D81BC01CD010E94F835DA014A
:104AD000C9010097A105B10509F053C019824BC067
:104AE0008A819B81AC81BD812AE030E040E050E0CA
:104AF000BC01CD010E94F835DA01C9018A839B838C
:104B0000AC83BD838885882F90E0A0E0B0E02A8147
:104B10003B814C815D81BC01CD010E94F835DA01F9
:104B2000C9018A309105A105B10590F48885882FC7
:104B300090E0A0E0B0E02A813B814C815D81BC0126
:104B4000CD010E94F835DA01C901805D0E94BE24C2
:104B50008885882F90E0A0E0B0E02A813B814C81DD
:104B60005D81BC01CD010E94F835DC01CB01888755
:104B700089818F5F898399818E81891708F0B0CFF1
:104B800016C08A819B81AC81BD812AE030E040E083
:104B900050E0BC01CD010E94D935DC01CB018A83F4
:104BA0009B83AC83BD838E818F5F8E8383CF81E0B7
:104BB0008F838F8128960FB6F894DEBF0FBECDBFCE
:104BC000CF91DF910895DF93CF93CDB7DEB72F97C5
:104BD0000FB6F894DEBF0FBECDBF6C877D878E8782
:104BE0009F871B8619868C859D85AE85BF858D83A5
:104BF0009E83AF83B88781E08A878D819E81AF8154
:104C0000B8858C879D87AE87BF876AE070E080E0BB
:104C100090E04A850E948826DC01CB0189839A8333
:104C2000AB83BC838C859D85AE85BF8529813A8108
:104C30004B815C81BC01CD010E94F835DA01C901CC
:104C40008C879D87AE87BF878C859D85AE85BF8508
:104C50000097A105B10529F48A85898789858A8706
:104C600047C08A858F5F8A87C8CF8D819E81AF813B
:104C7000B8858C879D87AE87BF878A85282F21506E
:104C80006AE070E080E090E0422F0E948826DC011C
:104C9000CB0189839A83AB83BC838D819E81AF8155
:104CA000B88529813A814B815C81BC01CD010E948C
:104CB000F835DC01CB018D839E83AF83B8878C856B
:104CC0009D85AE85BF8529813A814B815C81BC0180
:104CD000CD010E94F835DA01C9018C879D87AE8726
:104CE000BF878C85805D0E94BE248A8581508A871B
:104CF0008A85882309F0B9CF81E08B878B852F9631
:104D00000FB6F894DEBF0FBECDBFCF91DF910895EF
:104D1000DF93CF93CDB7DEB72A970FB6F894DEBFF7
:104D20000FBECDBF6E837F83888799874A8781E0D6
:104D300090E0A0E0B0E08A839B83AC83BD8381E0F8
:104D4000898315C08A819B81AC81BD812E813F8181
:104D500048855985BC01CD010E94D935DC01CB01C4
:104D60008A839B83AC83BD8389818F5F898399818B
:104D70008A85891738F78A819B81AC81BD81BC0106
:104D8000CD012A960FB6F894DEBF0FBECDBFCF91EE
:104D9000DF910895DF93CF93CDB7DEB76D970FB650
:104DA000F894DEBF0FBECDBF8D8F81E062E040E0A2
:104DB0000E948F1A81E061E040E00E948F1A8D8D81
:104DC000982F991F9927991F81E063E0492F0E942E
:104DD0008F1A8D8D8295869586958370982F917008
:104DE00080E066E0492F0E948F1A8D8D829586950E
:104DF0008770982F917080E065E0492F0E948F1A8C
:104E00008D8D82958F70982F917080E064E0492F8E
:104E10000E948F1A8D8D869586958695982F917014
:104E200080E063E0492F0E948F1A8D8D86958695CC
:104E3000982F917080E062E0492F0E948F1A8D8D2B
:104E40008695982F917080E061E0492F0E948F1A1B
:104E50008D8D982F917080E060E0492F0E948F1A0D
:104E600081E062E041E00E948F1A80E090E0A0E2E1
:104E7000B1E4898F9A8FAB8FBC8F698D7A8D8B8DC2
:104E80009C8D20E030E04AEF54E40E941F02DC01D8
:104E9000CB018D8B9E8BAF8BB88F6D897E898F896F
:104EA000988D20E030E040E85FE30E9455048823BD
:104EB0002CF481E090E09C8B8B8B3FC06D897E89C8
:104EC0008F89988D20E03FEF4FE757E40E94F5036C
:104ED00018164CF5698D7A8D8B8D9C8D20E030E015
:104EE00040E251E40E941F02DC01CB01BC01CD0174
:104EF0000E944900DC01CB019C8B8B8B0FC088EC9E
:104F000090E09A8B898B89899A890197F1F79A8B1E
:104F1000898B8B899C8901979C8B8B8B8B899C8936
:104F2000009769F714C06D897E898F89988D0E94DA
:104F30004900DC01CB019C8B8B8B8B899C89988BE6
:104F40008F878F8598890197F1F7988B8F8781E0FC
:104F500062E040E00E948F1A80E090E0A0E2B1E4BD
:104F60008B879C87AD87BE876B857C858D859E856D
:104F700020E030E04AEF54E40E941F02DC01CB0144
:104F80008F839887A987BA876F81788589859A8565
:104F900020E030E040E85FE30E94550488232CF4D1
:104FA00081E090E09E838D833FC06F817885898505
:104FB0009A8520E03FEF4FE757E40E94F50318166B
:104FC0004CF56B857C858D859E8520E030E040E248
:104FD00051E40E941F02DC01CB01BC01CD010E9403
:104FE0004900DC01CB019E838D830FC088EC90E0EB
:104FF0009C838B838B819C810197F1F79C838B83AE
:105000008D819E8101979E838D838D819E810097E6
:1050100069F714C06F81788589859A850E94490057
:10502000DC01CB019E838D838D819E819A83898350
:1050300089819A810197F1F79A8389836D960FB6DA
:10504000F894DEBF0FBECDBFCF91DF910895DF93FF
:10505000CF93CDB7DEB72F970FB6F894DEBF0FBE54
:10506000CDBF8F8781E060E040E00E948F1A81E031
:1050700062E040E00E948F1A81E061E040E00E941F
:105080008F1A8F85982F991F9927991F81E063E0C8
:10509000492F0E948F1A8F858295869586958370F9
:1050A000982F917080E066E0492F0E948F1A8F85BB
:1050B000829586958770982F917080E065E0492FE2
:1050C0000E948F1A8F8582958F70982F917080E043
:1050D00064E0492F0E948F1A8F8586958695869564
:1050E000982F917080E063E0492F0E948F1A8F857E
:1050F00086958695982F917080E062E0492F0E94F6
:105100008F1A8F858695982F917080E061E0492FE6
:105110000E948F1A8F85982F917080E060E0492F50
:105120000E948F1A81E062E041E00E948F1A80E0C5
:1051300090E0A0E2B1E48B879C87AD87BE876B854A
:105140007C858D859E8520E030E04AEF54E40E9406
:105150001F02DC01CB018F839887A987BA876F81F3
:10516000788589859A8520E030E040E85FE30E94F9
:10517000550488232CF481E090E09E838D833FC00A
:105180006F81788589859A8520E03FEF4FE757E466
:105190000E94F50318164CF56B857C858D859E85E0
:1051A00020E030E040E251E40E941F02DC01CB012C
:1051B000BC01CD010E944900DC01CB019E838D839F
:1051C0000FC088EC90E09C838B838B819C8101973E
:1051D000F1F79C838B838D819E8101979E838D83C4
:1051E0008D819E81009769F714C06F8178858985CC
:1051F0009A850E944900DC01CB019E838D838D81BD
:105200009E819A83898389819A810197F1F79A8394
:10521000898381E062E040E00E948F1A2F960FB6EA
:10522000F894DEBF0FBECDBFCF91DF910895DF931D
:10523000CF930F92CDB7DEB7198281E00E94FD2493
:10524000898389810F90CF91DF910895DF93CF9368
:105250000F92CDB7DEB7198283E060E040E00E9494
:10526000A31983E061E041E00E94A3190E9447076F
:1052700089830E94CC0889830E94B8088983898128
:105280000F90CF91DF910895DF93CF9300D00F92CD
:10529000CDB7DEB79B838A8319828A819B810E9466
:1052A0000D08898389810F900F900F90CF91DF9126
:1052B0000895DF93CF9300D00F92CDB7DEB79B83D5
:1052C0008A8319828A819B810E94E107898389816F
:1052D0000F900F900F90CF91DF910895DF93CF93B0
:1052E00000D0CDB7DEB78A8319828A810E94A107D8
:1052F000898389810F900F90CF91DF910895DF937B
:10530000CF9300D00F92CDB7DEB79B838A831982EB
:105310008A819B810E94BD07898389810F900F90AC
:105320000F90CF91DF910895DF93CF930F92CDB778
:10533000DEB719820E947212898389810F90CF9102
:10534000DF910895DF93CF9300D000D000D0CDB788
:10535000DEB79D838C836E831B828C819D8124E0CC
:105360008030920728F487E58A838C81898302C084
:1053700083E08B830E94AA12813099F48A8160E0D5
:105380000E942C13813069F489810E94811381303D
:1053900041F48E810E948113813019F40E94F4122D
:1053A0008B838B8126960FB6F894DEBF0FBECDBFE0
:1053B000CF91DF910895DF93CF93CDB7DEB72797D5
:1053C0000FB6F894DEBF0FBECDBF9D838C837F8365
:1053D0006E831B828C819D8124E08030920728F4AB
:1053E00087E58A838C81898302C083E08B830E9456
:1053F000AA128130F1F48A8160E00E942C1381307E
:10540000C1F489810E948113813099F40E94CA12EB
:10541000813079F48A8161E00E942C13813049F453
:105420008E819F810E94E113813019F40E94F41251
:105430008B838B8127960FB6F894DEBF0FBECDBF4E
:10544000CF91DF910895DF93CF9300D000D0CDB7F7
:10545000DEB79C838B831A828B819C81009709F431
:1054600092C019828BC08981882F90E09C01220F05
:10547000331F220F331F8B819C81FC01E20FF31F2E
:1054800040818981882F90E09C01220F331F220FD9
:10549000331F8B819C81FC01E20FF31F9181842FCC
:1054A000692F41E00E94A3198A838981882F90E0A7
:1054B0009C01220F331F220F331F8B819C81FC0123
:1054C000E20FF31F42818981882F90E09C01220F17
:1054D000331F220F331F8B819C81FC01E20FF31FCE
:1054E0009381842F692F41E00E94A3198A838981C7
:1054F000882F90E09C01220F331F220F331F8B81D6
:105500009C81FC01E20FF31F40818981882F90E08C
:105510009C01220F331F220F331F8B819C81FC01C2
:10552000E20FF31F9181842F692F40E00E948F1AB0
:105530008A838981882F90E09C01220F331F220FDC
:10554000331F8B819C81FC01E20FF31F4281898113
:10555000882F90E09C01220F331F220F331F8B8175
:105560009C81FC01E20FF31F9381842F692F40E09F
:105570000E948F1A8A8389818F5F89838981823013
:1055800008F471CF02C082E08A838A810F900F9065
:105590000F900F90CF91DF910895DF93CF93CDB708
:1055A000DEB7A2970FB6F894DEBF0FBECDBF9F8FB8
:1055B0008E8F68A31D8E8E8D9F8D009709F422C15A
:1055C00088A1282F30E03AA329A389A19AA10097A6
:1055D00039F029A13AA12130310509F48AC014C15A
:1055E000EE8DFF8D8281EE8DFF8D9381692F40E0DE
:1055F0000E948F1A8D8F80E090E0A0E8BFE3898F32
:105600009A8FAB8FBC8F698D7A8D8B8D9C8D20E0AE
:1056100030E04AEF54E40E941F02DC01CB018D8B85
:105620009E8BAF8BB88F6D897E898F89988D20E096
:1056300030E040E85FE30E94550488232CF481E0C9
:1056400090E09C8B8B8B3FC06D897E898F89988D74
:1056500020E03FEF4FE757E40E94F50318164CF5A2
:10566000698D7A8D8B8D9C8D20E030E040E251E495
:105670000E941F02DC01CB01BC01CD010E94490048
:10568000DC01CB019C8B8B8B0FC088EC90E09A8B5C
:10569000898B89899A890197F1F79A8B898B8B89F4
:1056A0009C8901979C8B8B8B8B899C89009769F7D0
:1056B00014C06D897E898F89988D0E944900DC0114
:1056C000CB019C8B8B8B8B899C89988B8F878F854B
:1056D00098890197F1F7988B8F87EE8DFF8D8081E8
:1056E000EE8DFF8D9181692F41E00E948F1A8D8F81
:1056F0008BC0EE8DFF8D8081EE8DFF8D9181692FA6
:1057000040E00E948F1A8D8F80E090E0A0E8BFE318
:105710008B879C87AD87BE876B857C858D859E85B5
:1057200020E030E04AEF54E40E941F02DC01CB018C
:105730008F839887A987BA876F81788589859A85AD
:1057400020E030E040E85FE30E94550488232CF419
:1057500081E090E09E838D833FC06F81788589854D
:105760009A8520E03FEF4FE757E40E94F5031816B3
:105770004CF56B857C858D859E8520E030E040E290
:1057800051E40E941F02DC01CB01BC01CD010E944B
:105790004900DC01CB019E838D830FC088EC90E033
:1057A0009C838B838B819C810197F1F79C838B83F6
:1057B0008D819E8101979E838D838D819E8100972F
:1057C00069F714C06F81788589859A850E944900A0
:1057D000DC01CB019E838D838D819E819A83898399
:1057E00089819A810197F1F79A838983EE8DFF8DE4
:1057F0008281EE8DFF8D9381692F41E00E948F1A87
:105800008D8F02C082E08D8F8D8DA2960FB6F89499
:10581000DEBF0FBECDBFCF91DF910895DF93CF9351
:10582000CDB7DEB761970FB6F894DEBF0FBECDBF20
:10583000998B888B1F8688899989009709F489C07C
:10584000E889F9898281E889F9899381692F40E0A3
:105850000E948F1A8F87E889F9898081E889F98900
:105860009181692F40E00E948F1A8F8780E090E03D
:10587000AAE7B4E48B879C87AD87BE876B857C8560
:105880008D859E8520E030E04AEF54E40E941F029F
:10589000DC01CB018F839887A987BA876F817885D0
:1058A00089859A8520E030E040E85FE30E94550456
:1058B00088232CF481E090E09E838D833FC06F812C
:1058C000788589859A8520E03FEF4FE757E40E946D
:1058D000F50318164CF56B857C858D859E8520E03B
:1058E00030E040E251E40E941F02DC01CB01BC0128
:1058F000CD010E944900DC01CB019E838D830FC046
:1059000088EC90E09C838B838B819C810197F1F7DD
:105910009C838B838D819E8101979E838D838D8156
:105920009E81009769F717C06F81788589859A8570
:105930000E944900DC01CB019E838D838D819E8175
:105940009A83898389819A810197F1F79A83898360
:1059500002C082E08F878F8561960FB6F894DEBF14
:105960000FBECDBFCF91DF910895DF93CF9300D0CD
:1059700000D0CDB7DEB79C838B831A828B819C814C
:10598000009709F493C019828CC08981282F30E0D8
:10599000C901880F991F280F391F8B819C81FC0139
:1059A000E20FF31F40818981282F30E0C901880F61
:1059B000991F280F391F8B819C81FC01E20FF31F77
:1059C0009181842F692F41E00E94A3198981282F9A
:1059D00030E0C901880F991F280F391F8B819C81E6
:1059E000FC01E20FF31F82818A3019F58981282F8B
:1059F00030E0C901880F991F280F391F8B819C81C6
:105A0000FC01E20FF31F40818981282F30E0C9019A
:105A1000880F991F280F391F8B819C81FC01E20F91
:105A2000F31F9181842F692F41E00E948F1A8A838E
:105A300035C08981282F30E0C901880F991F280FB0
:105A4000391F8B819C81FC01E20FF31F82818B3017
:105A500019F58981282F30E0C901880F991F280F77
:105A6000391F8B819C81FC01E20FF31F40818981EA
:105A7000282F30E0C901880F991F280F391F8B810B
:105A80009C81FC01E20FF31F9181842F692F40E07C
:105A90000E948F1A8A8302C083E08A8389818F5F84
:105AA00089838981882309F470CF02C082E08A83C8
:105AB0008A810F900F900F900F90CF91DF910895F2
:105AC000DF93CF9300D0CDB7DEB78A8319828A8166
:105AD0008823E1F58A81282F30E0C901880F991FBA
